:100000000C945D000C9485000C9485000C94850084
:100010000C9485000C9485000C9485000C9485004C
:100020000C9485000C9485000C9485000C9485003C
:100030000C9485000C9485000C9485000C9485002C
:100040000C943C050C9485000C940A050C94E40473
:100050000C9485000C9485000C9485000C9485000C
:100060000C9486050C948500000000080002010035
:100070000003040700000000000000000000000072
:10008000250028002B0000000000240027002A0083
:10009000040404040404040402020202020203032E
:1000A0000303030301020408102040800102040836
:1000B0001020010204081020A50611241FBECFEF56
:1000C000D8E0DEBFCDBF11E0A0E0B1E0ECE9F3E1A4
:1000D00002C005900D92A239B107D9F723E0A2E939
:1000E000B1E001C01D92A830B207E1F710E0CDE504
:1000F000D0E004C02197FE010E94C609CC35D1078B
:10010000C9F70E94E6060C94CC090C940000FC018F
:10011000538D448D252F30E0842F90E0821B930B6C
:10012000541710F0CF96089501970895FC01918D12
:10013000828D981761F0A28DAE0FBF2FB11D5D9615
:100140008C91928D9F5F9F73928F90E008958FEFB7
:100150009FEF0895FC01918D828D981731F0828D6B
:10016000E80FF11D858D90E008958FEF9FEF0895C2
:10017000FC01918D228D892F90E0805C9F4F821B26
:1001800091098F7399270895FC01A48DA80FB92FA9
:10019000B11DA35ABF4F2C91848D90E001968F73AF
:1001A0009927848FA689B7892C93A089B1898C91CE
:1001B000837080648C93938D848D981306C002881D
:1001C000F389E02D80818F7D80830895EF92FF92E7
:1001D0000F931F93CF93DF93EC0181E0888F9B8D6A
:1001E0008C8D98131AC0E889F989808185FF15C024
:1001F0009FB7F894EE89FF896083E889F989808147
:100200008370806480839FBF81E090E0DF91CF9115
:100210001F910F91FF90EF900895F62E0B8D10E037
:100220000F5F1F4F0F731127E02E8C8D8E110CC0A6
:100230000FB607FCFACFE889F989808185FFF5CFF1
:10024000CE010E94C400F1CFEB8DEC0FFD2FF11D0C
:10025000E35AFF4FF0829FB7F8940B8FEA89FB892E
:1002600080818062CFCFCF93DF93EC01888D88238C
:10027000B9F0AA89BB89E889F9898C9185FD03C009
:10028000808186FD0DC00FB607FCF7CF8C9185FFEE
:10029000F2CF808185FFEDCFCE010E94C400E9CF6F
:1002A000DF91CF91089585E592E00E94B80021E0AA
:1002B000892B09F420E0822F089580E090E0892BBB
:1002C00029F00E94530181110C94000008950895B3
:1002D0000895AF92BF92CF92DF92EF92FF920F9369
:1002E0001F93CF93DF936C017B018B01040F151FCC
:1002F000EB015E01AE18BF08C017D10759F0699134
:10030000D601ED91FC910190F081E02DC601099597
:10031000892B79F7C501DF91CF911F910F91FF9044
:10032000EF90DF90CF90BF90AF90089590E0FC01E8
:10033000E859FF4F2491FC01EC55FF4F3491FC012B
:10034000E057FF4FE491EE23C9F0222339F0233028
:1003500001F1A8F4213019F1223029F1F0E0EE0F7B
:10036000FF1FE458FF4FA591B4918FB7F894EC911B
:10037000611126C030953E233C938FBF08952730EE
:10038000A9F02830C9F0243049F7809180008F7D92
:1003900003C0809180008F7780938000DFCF84B589
:1003A0008F7784BDDBCF84B58F7DFBCF8091B0008C
:1003B0008F778093B000D2CF8091B0008F7DF9CF3E
:1003C0003E2BDACF3FB7F8948091FB019091FC016E
:1003D000A091FD01B091FE0126B5A89B05C02F3F5D
:1003E00019F00196A11DB11D3FBFBA2FA92F982F5B
:1003F0008827BC01CD01620F711D811D911D42E056
:10040000660F771F881F991F4A95D1F708958F921D
:100410009F92AF92BF92CF92DF92EF92FF924B01E9
:100420005C010E94E2016B017C010E94E2016C19F7
:100430007D098E099F09683E734081059105A8F3E7
:1004400021E0821A9108A108B10888EEC80E83E065
:10045000D81EE11CF11C81149104A104B10429F7F8
:10046000FF90EF90DF90CF90BF90AF909F908F90D4
:1004700008952091D301260F3327331F21323105F0
:10048000ECF420912B02FC0190E080E0243069F034
:1004900082E00895A091D3012191AC014D545E4FAB
:1004A000A40FB52FB11D2C930196861798F3809158
:1004B000D301680F6093D30180E0089581E008952F
:1004C00010922B0281E080932A021092050261E0D3
:1004D00082E10E94960161E083E10E949601E9EBCE
:1004E000F0E080818E7F808380818D7F808388E4AF
:1004F0008093B80085E48093BC000895CF93DF9388
:1005000091E09093B2018823B9F0C091B800D091E6
:10051000BA008091BC008A7B8093BC0060E082E1DD
:100520000E94960160E083E10E9496010E946002B1
:10053000D093BA00C093B800DF91CF910895CF92C5
:10054000DF92EF92FF920F931F93CF93DF93D0919F
:10055000540281E0D13208F09CC0C09153020E9445
:10056000E2016B017C0180912B0281116CC082E061
:1005700080932B0281E080932A028FEF80932902DF
:1005800010922802D0932702A3E3B2E0E7E0F2E062
:1005900080E0D8138DC01092060280910602CC0F25
:1005A000C82BC093060280910502813009F084C0F7
:1005B000109205020E94E2016B017C01809106020B
:1005C0008093BB0080912D0290912E02A0912F026A
:1005D000B0913002892B8A2B8B2BA1F00E94E20173
:1005E00000912D0210912E0220912F0230913002A5
:1005F0006C197D098E099F09061717072807390707
:1006000008F442C08091BC0083FDD8CF85EC809374
:10061000BC000E94E2016B017C0180912B028230C0
:1006200009F44CC0809129028F3F09F469C0809180
:100630002902803209F466C080912902803309F4CE
:1006400063C084E026C080912D0290912E02A0917B
:100650002F02B0913002892B8A2B8B2B09F483CF88
:100660000E94E20100912D0210912E0220912F0292
:10067000309130026C197D098E099F090617170702
:100680002807390708F06FCF80912C020E947E0264
:1006900085E0109232021092540210923102DF91E2
:1006A000CF911F910F91FF90EF90DF90CF90089521
:1006B0009D9191938F5F6DCF85EEA9CF80912D0293
:1006C00090912E02A0912F02B0913002892B8A2B9B
:1006D0008B2B09F4A2CF0E94E20100912D02109110
:1006E0002E0220912F02309130026C197D098E0963
:1006F0009F09061717072807390708F08ECFC4CFC0
:1007000080E0C7CF82E0C5CF83E0C3CF0895E091FA
:10071000040280910302E81730F4F0E0EE56FE4F39
:10072000808190E008958FEF9FEF089590910402EB
:10073000809103022FEF3FEF981748F4E92FF0E084
:10074000EE56FE4F208130E09F5F90930402C90176
:1007500008958091030290910402891B990B0895DA
:10076000CF92DF92EF92FF920F931F93CF93DF937D
:100770007C01CB018A0120913102222389F0EB0117
:100780006B01C40ED51ECC15DD0569F06991D7014A
:10079000ED91FC910190F081E02DC7010995F3CF17
:1007A000642F0E943902C801DF91CF911F910F91F0
:1007B000FF90EF90DF90CF900895CF93DF931F923B
:1007C000CDB7DEB76983209131022223F9F0209161
:1007D0005402203258F021E030E0FC0133832283C0
:1007E00090E080E00F90DF91CF91089580913202E8
:1007F000E82FF0E0ED5CFD4F998190838F5F80934F
:1008000032028093540281E090E0ECCF61E0CE01AF
:1008100001960E943902F7CF6295607F41116160B5
:1008200021116460FC01258121116860FC01848133
:1008300091E0909331028093530210923202109211
:10084000540282EF92E00E94DD030C949F0208950F
:1008500090E080E008950F931F93CF93DF93EC0116
:10086000162F042F21E00E940C0420E0402F612F5E
:10087000CE010E940C048FE890E00197F1F7DF9120
:10088000CF911F910F9108950F931F93CF93DF93F3
:100890008C01C62FD42F62956F700E942B046C2F91
:1008A0006F704D2FC801DF91CF911F910F910C9464
:1008B0002B0440E061E08EEF92E00E9444048BE361
:1008C0009FE10197F1F70895CF93DF93CDB7DEB79E
:1008D00028970FB6F894DEBF0FBECDBF88E0E0E0EA
:1008E000F1E0DE01119601900D928A95E1F7809179
:1008F00007038230D0F4815090E0880F991F21E0E7
:1009000030E02C0F3D1F820F931FFC016081606857
:1009100040E08EEF92E028960FB6F894DEBF0FBE4F
:10092000CDBFDF91CF910C94440481E0E5CF41E04D
:100930000E94440481E090E00895FB0101900020B2
:10094000E9F73197AF01461B570BDC01ED91FC91A4
:100950000280F381E02D099485ED8093BC008091A5
:100960002D0290912E02A0912F02B0913002079695
:10097000A11DB11D23E0B695A795979587952A955A
:10098000D1F72091BC0024FD03C010922B020895E2
:1009900040912D0250912E0260912F0270913002F1
:1009A000452B462B472B69F30097A105B10541F074
:1009B0002AE22A95F1F700C00197A109B109E1CF18
:1009C00080912C020C947E021F920F920FB60F9210
:1009D00011242F933F934F935F936F937F938F9344
:1009E0009F93AF93BF93EF93FF9385E592E00E94AF
:1009F000C400FF91EF91BF91AF919F918F917F9133
:100A00006F915F914F913F912F910F900FBE0F907B
:100A10001F9018951F920F920FB60F9211242F93CB
:100A20008F939F93EF93FF93E0916502F09166029D
:100A30008081E0916B02F0916C0282FD1BC090817D
:100A400080916E028F5F8F7320916F02821741F049
:100A5000E0916E02F0E0EB5AFD4F958F80936E02AD
:100A6000FF91EF919F918F912F910F900FBE0F905B
:100A70001F9018958081F4CF1F920F920FB60F929E
:100A800011242F933F938F939F93AF93BF938091A4
:100A9000F7019091F801A091F901B091FA0130911C
:100AA000F60123E0230F2D3758F50196A11DB11D46
:100AB0002093F6018093F7019093F801A093F90138
:100AC000B093FA018091FB019091FC01A091FD018E
:100AD000B091FE010196A11DB11D8093FB01909381
:100AE000FC01A093FD01B093FE01BF91AF919F91D6
:100AF0008F913F912F910F900FBE0F901F901895DF
:100B000026E8230F0296A11DB11DD2CF1F920F928E
:100B10000FB60F9211242F933F934F935F936F93D0
:100B20007F938F939F93AF93BF93EF93FF938091A6
:100B3000B900887F803609F44AC0F0F5883209F49C
:100B4000A7C018F5803109F49BC0B8F4882309F4D4
:100B5000F9C0883009F494C0FF91EF91BF91AF9133
:100B60009F918F917F916F915F914F913F912F91C5
:100B70000F900FBE0F901F901895883109F488C010
:100B8000803251F78093290214C0803409F49DC04B
:100B900040F48033B9F38833F9F68093290285EC69
:100BA000B0C0803509F485C0883509F496C0883412
:100BB00099F60E94AC04D0CF883909F48CC038F57E
:100BC000883729F050F4883611F0803729F683E011
:100BD00080932B021092F50157C0883809F47BC02E
:100BE000803919F0803809F0B7CF8091F501803253
:100BF00008F071C0E091F50181E08E0F8093F5015E
:100C00008091BB00F0E0EB52FE4F80833DC0803B03
:100C100039F0E0F4803A09F479C0883A09F09CCFC1
:100C200084E080932B021092D4011092D301E091C2
:100C30000102F091020209958091D30181110FC048
:100C400081E08093D3011092B30109C0803C09F484
:100C5000A6CF883C09F4A3CF883B09F07DCFE09173
:100C6000D40181E08E0F8093D401F0E0ED54FE4F6B
:100C700080818093BB009091D4018091D30129C0E1
:100C8000809106028093BB0085EC8093BC0064CF0A
:100C90009091280280912702981758F5E091280238
:100CA00081E08E0F80932802F0E0E95FFD4F8081A4
:100CB000E9CFE091280281E08E0F80932802809195
:100CC000BB00F0E0E95FFD4F8083909128028091A6
:100CD00027029817C8F285E8D8CFE091280281E072
:100CE0008E0F809328028091BB00F0E0E95FFD4FFA
:100CF000808380912A0281115CCF81E0809305027C
:100D000084EA8093BC0010922B0226CF85EC80935E
:100D1000BC0010922B028091F501803230F4E091FA
:100D2000F501F0E0EB52FE4F10826091F50170E0AA
:100D3000E091FF01F091000285ED91E0099510929C
:100D4000F5010ACF1092290234CFE5E5F2E01382D3
:100D5000128288EE93E0A0E0B0E084839583A683BE
:100D6000B7832CE031E03183208325EC30E03587F8
:100D7000248724EC30E03787268720EC30E0318B65
:100D8000208B21EC30E0338B228B22EC30E0358B52
:100D9000248B26EC30E0378B268B118E128E138E2F
:100DA000148EE2EFF2E01382128284839583A6838D
:100DB000B7838EE191E091838083EEEFF2E01382BE
:100DC000128280E391E0918380830895CF93DF9333
:100DD000CDB7DEB7A1970FB6F894DEBF0FBECDBF7B
:100DE000789484B5826084BD84B5816084BD85B506
:100DF000826085BD85B5816085BD80916E00816012
:100E000080936E00109281008091810082608093B7
:100E100081008091810081608093810080918000B9
:100E20008160809380008091B10084608093B100E4
:100E30008091B00081608093B00080917A008460DE
:100E400080937A0080917A00826080937A0080910A
:100E50007A00816080937A0080917A008068809324
:100E60007A001092C1008FEF8093030380E2809399
:100E7000020372E0D72ED092070388E08093040328
:100E80001092040210920302109232021092540245
:100E90000E94600287E691E0909302028093010233
:100EA00088E691E0909300028093FF0120E040E00B
:100EB00060E08EEF92E00E940C048BE39DE00197CE
:100EC000F1F740E063E08EEF92E00E942B04EBE448
:100ED000EE2EE6E4FE2EC7010197F1F740E063E055
:100EE0008EEF92E00E942B04C7010197F1F740E0DA
:100EF00063E08EEF92E00E942B0483E592E001977D
:100F0000F1F740E062E08EEF92E00E942B046091E6
:100F10000403606240E08EEF92E00E94440484E0AB
:100F20008093050340E06CE08EEF92E00E94440461
:100F30000E945904D092060340E066E08EEF92E0F2
:100F40000E94440420E041E060E08EEF92E00E94C5
:100F50000C0410923202109254020E94600280919E
:100F6000020391E090933102809353020E949F020A
:100F7000882361F068E371E085E592E00E949D04BA
:100F800067E471E085E592E00E949D040E945904A7
:100F9000E2EBF0E02491EEE9F0E084918823C9F0DF
:100FA00090E0880F991FFC01EA57FF4FA591B4917B
:100FB000FC01E458FF4F459154919FB7F8948C91F0
:100FC000E22FE0958E238C93DA018C91E823EC9349
:100FD0009FBF22E030E0F901EC55FF4F4491F90149
:100FE000E057FF4F8491882399F090E0880F991F74
:100FF000FC01EA57FF4FA591B491FC01E458FF4F63
:10100000859194918FB7F894EC91E42BEC938FBF7A
:101010002F5F3F4F2A303105F1F680E480937C004A
:1010200080917A00806480937A0080917A0086FDB6
:10103000FCCFE0907800F0907900E114F10409F41D
:1010400044C00E945904B4E4EB16F104B9F46AE414
:1010500071E08EEF92E00E949D0462E370E080E018
:1010600090E00E94070212E060E0812F0E9496014A
:101070001F5F1A30C9F70FE010E00CC082E6E816D7
:10108000F10481F50E94590461E082E00E9496011A
:1010900001E010E00E9459040E9464040E94590477
:1010A0000A3011050CF05DC16CE671E08EEF92E044
:1010B0000E949D0419A280E3800F88A3BE01605E98
:1010C0007F4F8EEF92E00E949D0480E090E0892B9C
:1010D00009F4A3CF0E945301882309F49ECF0E94F4
:1010E00000009BCFAAE5EA16F10449F40E945904D6
:1010F00061E083E00E94960102E010E0CBCFB3E50F
:10110000EB16F10449F40E94590461E084E00E9466
:10111000960103E010E0BECF84EBE816F10449F439
:101120000E94590461E085E00E94960104E010E00D
:10113000B1CFA9E9EA16F10449F40E94590461E02B
:1011400086E00E94960105E010E0A4CFB5E8EB161A
:10115000F10449F40E94590461E087E00E9496017D
:1011600006E010E097CF8FEFE81683E0F80649F429
:101170000E94590461E088E00E94960107E010E0B7
:1011800089CFE114A2E0FA0649F40E94590461E013
:1011900089E00E94960108E010E07CCFB5E5EB16EF
:1011A000B1E0FB0659F412E061E0812F0E94960144
:1011B0001F5F1A30C9F709E010E06CCF80E4E81631
:1011C000F10459F412E060E0812F0E9496011F5F44
:1011D0001A30C9F710E000E05DCFACE3EA16F10485
:1011E00009F077C00E94590462E571E08EEF92E049
:1011F0000E949D0496E0E92EF12C12E061E0812F1F
:101200000E94960101E0010F61E0802F0E9496018B
:1012100061E082E0810F0E94960161E083E0810F2E
:101220000E94960161E084E0810F0E94960161E0D6
:1012300085E0810F0E94960161E086E0810F0E94A7
:10124000960161E087E0810F0E94960165E070E001
:1012500080E090E00E940702102F0A3079F612E039
:1012600060E0812F0E94960101E0010F60E0802F75
:101270000E94960160E082E0810F0E94960160E08A
:1012800083E0810F0E94960160E084E0810F0E945C
:10129000960160E085E0810F0E94960160E086E0A3
:1012A000810F0E94960160E087E0810F0E94960105
:1012B00065E070E080E090E00E940702102F0A30A5
:1012C00079F6B1E0EB1AF10809F097CF0BE010E0E6
:1012D000E1CE89E3E816F10471F50E9459046FE547
:1012E00071E08EEF92E00E949D0486E0E82EF12CE2
:1012F00012E061E0812F0E94960165E070E080E0DD
:1013000090E00E9407021F5F1A3099F712E060E038
:10131000812F0E94960165E070E080E090E00E94DD
:1013200007021F5F1A3099F7A1E0EA1AF10801F7E6
:101330000AE010E0AFCEBCE4EB16F10461F086E702
:10134000E816F10459F0E114A1E0FA0609F0A2CE82
:101350000EE010E09FCE0CE010E09CCE0DE010E01F
:1013600099CE0C3011050CF4B0CE69E871E00F3065
:10137000110509F4A6CE62E771E08EEF92E00E94BB
:101380009D040E9464046FE771E09BCEEE0FFF1F87
:0C1390000590F491E02D0994F894FFCF33
:10139C00000040001400540000000000E600690149
:1013AC0087003301B8009600AA0000000000DD039E
:1013BC00B00328048603A9039603870300000000EA
:1013CC0097046901280427044C4344206E6F742051
:1013DC00666F756E642E000D0A0057656C636F6D39
:1013EC0065005061747465726E203E3E2032005070
:1013FC0061747465726E203E3E2031004C45443A57
:10140C002D00456E7465722076616C696465004CC4
:10141C004544206E6F2E2E2E0043686F6963653A2B
:02142C002D0091
:107E0000112484B714BE81FFF0D085E080938100F7
:107E100082E08093C00088E18093C10086E0809377
:107E2000C20080E18093C4008EE0C9D0259A86E02C
:107E300020E33CEF91E0309385002093840096BBD3
:107E4000B09BFECF1D9AA8958150A9F7CC24DD24C4
:107E500088248394B5E0AB2EA1E19A2EF3E0BF2EE7
:107E6000A2D0813461F49FD0082FAFD0023811F036
:107E7000013811F484E001C083E08DD089C08234E0
:107E800011F484E103C0853419F485E0A6D080C0E4
:107E9000853579F488D0E82EFF2485D0082F10E0AE
:107EA000102F00270E291F29000F111F8ED06801E7
:107EB0006FC0863521F484E090D080E0DECF843638
:107EC00009F040C070D06FD0082F6DD080E0C81688
:107ED00080E7D80618F4F601B7BEE895C0E0D1E017
:107EE00062D089930C17E1F7F0E0CF16F0E7DF06D8
:107EF00018F0F601B7BEE89568D007B600FCFDCFD4
:107F0000A601A0E0B1E02C9130E011968C91119780
:107F100090E0982F8827822B932B1296FA010C0160
:107F200087BEE89511244E5F5F4FF1E0A038BF0790
:107F300051F7F601A7BEE89507B600FCFDCF97BE46
:107F4000E89526C08437B1F42ED02DD0F82E2BD052
:107F50003CD0F601EF2C8F010F5F1F4F84911BD097
:107F6000EA94F801C1F70894C11CD11CFA94CF0C13
:107F7000D11C0EC0853739F428D08EE10CD085E9AC
:107F80000AD08FE07ACF813511F488E018D01DD067
:107F900080E101D065CF982F8091C00085FFFCCF94
:107FA0009093C60008958091C00087FFFCCF809118
:107FB000C00084FD01C0A8958091C6000895E0E648
:107FC000F0E098E1908380830895EDDF803219F02E
:107FD00088E0F5DFFFCF84E1DECF1F93182FE3DFCA
:107FE0001150E9F7F2DF1F91089580E0E8DFEE27F6
:047FF000FF270994CA
:027FFE00040479
:0400000300007E007B
:00000001FF
